{
  "_format": "hh-sol-artifact-1",
  "contractName": "INFTFixed",
  "sourceName": "contracts/INFTFixed.sol",
  "abi": [
    {
      "inputs": [
        {
          "internalType": "address",
          "name": "_dataVerifier",
          "type": "address"
        },
        {
          "internalType": "string",
          "name": "_name",
          "type": "string"
        },
        {
          "internalType": "string",
          "name": "_symbol",
          "type": "string"
        }
      ],
      "stateMutability": "nonpayable",
      "type": "constructor"
    },
    {
      "inputs": [],
      "name": "CallerNotAuthorized",
      "type": "error"
    },
    {
      "inputs": [
        {
          "internalType": "address",
          "name": "sender",
          "type": "address"
        },
        {
          "internalType": "uint256",
          "name": "tokenId",
          "type": "uint256"
        },
        {
          "internalType": "address",
          "name": "owner",
          "type": "address"
        }
      ],
      "name": "ERC721IncorrectOwner",
      "type": "error"
    },
    {
      "inputs": [
        {
          "internalType": "address",
          "name": "operator",
          "type": "address"
        },
        {
          "internalType": "uint256",
          "name": "tokenId",
          "type": "uint256"
        }
      ],
      "name": "ERC721InsufficientApproval",
      "type": "error"
    },
    {
      "inputs": [
        {
          "internalType": "address",
          "name": "approver",
          "type": "address"
        }
      ],
      "name": "ERC721InvalidApprover",
      "type": "error"
    },
    {
      "inputs": [
        {
          "internalType": "address",
          "name": "operator",
          "type": "address"
        }
      ],
      "name": "ERC721InvalidOperator",
      "type": "error"
    },
    {
      "inputs": [
        {
          "internalType": "address",
          "name": "owner",
          "type": "address"
        }
      ],
      "name": "ERC721InvalidOwner",
      "type": "error"
    },
    {
      "inputs": [
        {
          "internalType": "address",
          "name": "receiver",
          "type": "address"
        }
      ],
      "name": "ERC721InvalidReceiver",
      "type": "error"
    },
    {
      "inputs": [
        {
          "internalType": "address",
          "name": "sender",
          "type": "address"
        }
      ],
      "name": "ERC721InvalidSender",
      "type": "error"
    },
    {
      "inputs": [
        {
          "internalType": "uint256",
          "name": "tokenId",
          "type": "uint256"
        }
      ],
      "name": "ERC721NonexistentToken",
      "type": "error"
    },
    {
      "inputs": [],
      "name": "EmptySealedKey",
      "type": "error"
    },
    {
      "inputs": [],
      "name": "InvalidFromAddress",
      "type": "error"
    },
    {
      "inputs": [],
      "name": "InvalidTransferProof",
      "type": "error"
    },
    {
      "inputs": [
        {
          "internalType": "address",
          "name": "owner",
          "type": "address"
        }
      ],
      "name": "OwnableInvalidOwner",
      "type": "error"
    },
    {
      "inputs": [
        {
          "internalType": "address",
          "name": "account",
          "type": "address"
        }
      ],
      "name": "OwnableUnauthorizedAccount",
      "type": "error"
    },
    {
      "inputs": [],
      "name": "ReentrancyGuardReentrantCall",
      "type": "error"
    },
    {
      "inputs": [],
      "name": "TokenNotFound",
      "type": "error"
    },
    {
      "inputs": [],
      "name": "TransferToZeroAddress",
      "type": "error"
    },
    {
      "inputs": [],
      "name": "UserAlreadyAuthorized",
      "type": "error"
    },
    {
      "inputs": [],
      "name": "UserNotAuthorized",
      "type": "error"
    },
    {
      "anonymous": false,
      "inputs": [
        {
          "indexed": true,
          "internalType": "address",
          "name": "owner",
          "type": "address"
        },
        {
          "indexed": true,
          "internalType": "address",
          "name": "approved",
          "type": "address"
        },
        {
          "indexed": true,
          "internalType": "uint256",
          "name": "tokenId",
          "type": "uint256"
        }
      ],
      "name": "Approval",
      "type": "event"
    },
    {
      "anonymous": false,
      "inputs": [
        {
          "indexed": true,
          "internalType": "address",
          "name": "owner",
          "type": "address"
        },
        {
          "indexed": true,
          "internalType": "address",
          "name": "operator",
          "type": "address"
        },
        {
          "indexed": false,
          "internalType": "bool",
          "name": "approved",
          "type": "bool"
        }
      ],
      "name": "ApprovalForAll",
      "type": "event"
    },
    {
      "anonymous": false,
      "inputs": [
        {
          "indexed": true,
          "internalType": "uint256",
          "name": "tokenId",
          "type": "uint256"
        },
        {
          "indexed": true,
          "internalType": "address",
          "name": "user",
          "type": "address"
        },
        {
          "indexed": false,
          "internalType": "bool",
          "name": "authorized",
          "type": "bool"
        }
      ],
      "name": "AuthorizedUsage",
      "type": "event"
    },
    {
      "anonymous": false,
      "inputs": [
        {
          "indexed": true,
          "internalType": "address",
          "name": "previousOwner",
          "type": "address"
        },
        {
          "indexed": true,
          "internalType": "address",
          "name": "newOwner",
          "type": "address"
        }
      ],
      "name": "OwnershipTransferred",
      "type": "event"
    },
    {
      "anonymous": false,
      "inputs": [
        {
          "indexed": true,
          "internalType": "uint256",
          "name": "tokenId",
          "type": "uint256"
        },
        {
          "indexed": false,
          "internalType": "string",
          "name": "sealedKey",
          "type": "string"
        },
        {
          "indexed": true,
          "internalType": "address",
          "name": "recipient",
          "type": "address"
        }
      ],
      "name": "PublishedSealedKey",
      "type": "event"
    },
    {
      "anonymous": false,
      "inputs": [
        {
          "indexed": true,
          "internalType": "address",
          "name": "from",
          "type": "address"
        },
        {
          "indexed": true,
          "internalType": "address",
          "name": "to",
          "type": "address"
        },
        {
          "indexed": true,
          "internalType": "uint256",
          "name": "tokenId",
          "type": "uint256"
        }
      ],
      "name": "Transfer",
      "type": "event"
    },
    {
      "anonymous": false,
      "inputs": [
        {
          "indexed": true,
          "internalType": "address",
          "name": "from",
          "type": "address"
        },
        {
          "indexed": true,
          "internalType": "address",
          "name": "to",
          "type": "address"
        },
        {
          "indexed": true,
          "internalType": "uint256",
          "name": "tokenId",
          "type": "uint256"
        },
        {
          "indexed": false,
          "internalType": "string",
          "name": "sealedKey",
          "type": "string"
        },
        {
          "indexed": false,
          "internalType": "bytes32",
          "name": "proofHash",
          "type": "bytes32"
        }
      ],
      "name": "Transferred",
      "type": "event"
    },
    {
      "inputs": [
        {
          "internalType": "address",
          "name": "to",
          "type": "address"
        },
        {
          "internalType": "uint256",
          "name": "tokenId",
          "type": "uint256"
        }
      ],
      "name": "approve",
      "outputs": [],
      "stateMutability": "nonpayable",
      "type": "function"
    },
    {
      "inputs": [
        {
          "internalType": "uint256",
          "name": "tokenId",
          "type": "uint256"
        },
        {
          "internalType": "address",
          "name": "user",
          "type": "address"
        }
      ],
      "name": "authorizeUsage",
      "outputs": [],
      "stateMutability": "nonpayable",
      "type": "function"
    },
    {
      "inputs": [
        {
          "internalType": "uint256",
          "name": "tokenId",
          "type": "uint256"
        }
      ],
      "name": "authorizedUsersOf",
      "outputs": [
        {
          "internalType": "address[]",
          "name": "",
          "type": "address[]"
        }
      ],
      "stateMutability": "view",
      "type": "function"
    },
    {
      "inputs": [
        {
          "internalType": "address",
          "name": "owner",
          "type": "address"
        }
      ],
      "name": "balanceOf",
      "outputs": [
        {
          "internalType": "uint256",
          "name": "",
          "type": "uint256"
        }
      ],
      "stateMutability": "view",
      "type": "function"
    },
    {
      "inputs": [],
      "name": "dataVerifier",
      "outputs": [
        {
          "internalType": "contract IDataVerifierAdapter",
          "name": "",
          "type": "address"
        }
      ],
      "stateMutability": "view",
      "type": "function"
    },
    {
      "inputs": [
        {
          "internalType": "uint256",
          "name": "tokenId",
          "type": "uint256"
        }
      ],
      "name": "encryptedURI",
      "outputs": [
        {
          "internalType": "string",
          "name": "",
          "type": "string"
        }
      ],
      "stateMutability": "view",
      "type": "function"
    },
    {
      "inputs": [
        {
          "internalType": "uint256",
          "name": "tokenId",
          "type": "uint256"
        }
      ],
      "name": "getApproved",
      "outputs": [
        {
          "internalType": "address",
          "name": "",
          "type": "address"
        }
      ],
      "stateMutability": "view",
      "type": "function"
    },
    {
      "inputs": [],
      "name": "getCurrentTokenId",
      "outputs": [
        {
          "internalType": "uint256",
          "name": "",
          "type": "uint256"
        }
      ],
      "stateMutability": "view",
      "type": "function"
    },
    {
      "inputs": [
        {
          "internalType": "address",
          "name": "owner",
          "type": "address"
        },
        {
          "internalType": "address",
          "name": "operator",
          "type": "address"
        }
      ],
      "name": "isApprovedForAll",
      "outputs": [
        {
          "internalType": "bool",
          "name": "",
          "type": "bool"
        }
      ],
      "stateMutability": "view",
      "type": "function"
    },
    {
      "inputs": [
        {
          "internalType": "uint256",
          "name": "tokenId",
          "type": "uint256"
        },
        {
          "internalType": "address",
          "name": "user",
          "type": "address"
        }
      ],
      "name": "isAuthorized",
      "outputs": [
        {
          "internalType": "bool",
          "name": "",
          "type": "bool"
        }
      ],
      "stateMutability": "view",
      "type": "function"
    },
    {
      "inputs": [
        {
          "internalType": "uint256",
          "name": "tokenId",
          "type": "uint256"
        }
      ],
      "name": "metadataHash",
      "outputs": [
        {
          "internalType": "bytes32",
          "name": "",
          "type": "bytes32"
        }
      ],
      "stateMutability": "view",
      "type": "function"
    },
    {
      "inputs": [
        {
          "internalType": "address",
          "name": "to",
          "type": "address"
        },
        {
          "internalType": "string",
          "name": "encryptedURI",
          "type": "string"
        },
        {
          "internalType": "bytes32",
          "name": "metadataHash",
          "type": "bytes32"
        }
      ],
      "name": "mint",
      "outputs": [
        {
          "internalType": "uint256",
          "name": "",
          "type": "uint256"
        }
      ],
      "stateMutability": "nonpayable",
      "type": "function"
    },
    {
      "inputs": [],
      "name": "name",
      "outputs": [
        {
          "internalType": "string",
          "name": "",
          "type": "string"
        }
      ],
      "stateMutability": "view",
      "type": "function"
    },
    {
      "inputs": [],
      "name": "owner",
      "outputs": [
        {
          "internalType": "address",
          "name": "",
          "type": "address"
        }
      ],
      "stateMutability": "view",
      "type": "function"
    },
    {
      "inputs": [
        {
          "internalType": "uint256",
          "name": "tokenId",
          "type": "uint256"
        }
      ],
      "name": "ownerOf",
      "outputs": [
        {
          "internalType": "address",
          "name": "",
          "type": "address"
        }
      ],
      "stateMutability": "view",
      "type": "function"
    },
    {
      "inputs": [],
      "name": "renounceOwnership",
      "outputs": [],
      "stateMutability": "nonpayable",
      "type": "function"
    },
    {
      "inputs": [
        {
          "internalType": "uint256",
          "name": "tokenId",
          "type": "uint256"
        },
        {
          "internalType": "address",
          "name": "user",
          "type": "address"
        }
      ],
      "name": "revokeUsage",
      "outputs": [],
      "stateMutability": "nonpayable",
      "type": "function"
    },
    {
      "inputs": [
        {
          "internalType": "address",
          "name": "from",
          "type": "address"
        },
        {
          "internalType": "address",
          "name": "to",
          "type": "address"
        },
        {
          "internalType": "uint256",
          "name": "tokenId",
          "type": "uint256"
        }
      ],
      "name": "safeTransferFrom",
      "outputs": [],
      "stateMutability": "nonpayable",
      "type": "function"
    },
    {
      "inputs": [
        {
          "internalType": "address",
          "name": "from",
          "type": "address"
        },
        {
          "internalType": "address",
          "name": "to",
          "type": "address"
        },
        {
          "internalType": "uint256",
          "name": "tokenId",
          "type": "uint256"
        },
        {
          "internalType": "bytes",
          "name": "data",
          "type": "bytes"
        }
      ],
      "name": "safeTransferFrom",
      "outputs": [],
      "stateMutability": "nonpayable",
      "type": "function"
    },
    {
      "inputs": [
        {
          "internalType": "address",
          "name": "operator",
          "type": "address"
        },
        {
          "internalType": "bool",
          "name": "approved",
          "type": "bool"
        }
      ],
      "name": "setApprovalForAll",
      "outputs": [],
      "stateMutability": "nonpayable",
      "type": "function"
    },
    {
      "inputs": [
        {
          "internalType": "bytes4",
          "name": "interfaceId",
          "type": "bytes4"
        }
      ],
      "name": "supportsInterface",
      "outputs": [
        {
          "internalType": "bool",
          "name": "",
          "type": "bool"
        }
      ],
      "stateMutability": "view",
      "type": "function"
    },
    {
      "inputs": [],
      "name": "symbol",
      "outputs": [
        {
          "internalType": "string",
          "name": "",
          "type": "string"
        }
      ],
      "stateMutability": "view",
      "type": "function"
    },
    {
      "inputs": [
        {
          "internalType": "uint256",
          "name": "tokenId",
          "type": "uint256"
        }
      ],
      "name": "tokenURI",
      "outputs": [
        {
          "internalType": "string",
          "name": "",
          "type": "string"
        }
      ],
      "stateMutability": "view",
      "type": "function"
    },
    {
      "inputs": [
        {
          "internalType": "address",
          "name": "from",
          "type": "address"
        },
        {
          "internalType": "address",
          "name": "to",
          "type": "address"
        },
        {
          "internalType": "uint256",
          "name": "tokenId",
          "type": "uint256"
        },
        {
          "internalType": "bytes",
          "name": "sealedKey",
          "type": "bytes"
        },
        {
          "internalType": "bytes",
          "name": "proof",
          "type": "bytes"
        }
      ],
      "name": "transfer",
      "outputs": [],
      "stateMutability": "nonpayable",
      "type": "function"
    },
    {
      "inputs": [
        {
          "internalType": "address",
          "name": "from",
          "type": "address"
        },
        {
          "internalType": "address",
          "name": "to",
          "type": "address"
        },
        {
          "internalType": "uint256",
          "name": "tokenId",
          "type": "uint256"
        }
      ],
      "name": "transferFrom",
      "outputs": [],
      "stateMutability": "nonpayable",
      "type": "function"
    },
    {
      "inputs": [
        {
          "internalType": "address",
          "name": "newOwner",
          "type": "address"
        }
      ],
      "name": "transferOwnership",
      "outputs": [],
      "stateMutability": "nonpayable",
      "type": "function"
    }
  ],
  "bytecode": "0x60a06040523480156200001157600080fd5b50604051620020ef380380620020ef83398101604081905262000034916200022f565b33828260006200004583826200034a565b5060016200005482826200034a565b5050506001600160a01b0381166200008757604051631e4fbdf760e01b8152600060048201526024015b60405180910390fd5b620000928162000115565b5060016007556001600160a01b038316620000fc5760405162461bcd60e51b815260206004820152602360248201527f44617461566572696669657220616464726573732063616e6e6f74206265207a60448201526265726f60e81b60648201526084016200007e565b50506001600160a01b0316608052600060085562000416565b600680546001600160a01b038381166001600160a01b0319831681179093556040519116919082907f8be0079c531659141344cd1fd0a4f28419497f9722a3daafe3b4186f6b6457e090600090a35050565b634e487b7160e01b600052604160045260246000fd5b600082601f8301126200018f57600080fd5b81516001600160401b0380821115620001ac57620001ac62000167565b604051601f8301601f19908116603f01168101908282118183101715620001d757620001d762000167565b8160405283815260209250866020858801011115620001f557600080fd5b600091505b83821015620002195785820183015181830184015290820190620001fa565b6000602085830101528094505050505092915050565b6000806000606084860312156200024557600080fd5b83516001600160a01b03811681146200025d57600080fd5b60208501519093506001600160401b03808211156200027b57600080fd5b62000289878388016200017d565b93506040860151915080821115620002a057600080fd5b50620002af868287016200017d565b9150509250925092565b600181811c90821680620002ce57607f821691505b602082108103620002ef57634e487b7160e01b600052602260045260246000fd5b50919050565b601f82111562000345576000816000526020600020601f850160051c81016020861015620003205750805b601f850160051c820191505b8181101562000341578281556001016200032c565b5050505b505050565b81516001600160401b0381111562000366576200036662000167565b6200037e81620003778454620002b9565b84620002f5565b602080601f831160018114620003b657600084156200039d5750858301515b600019600386901b1c1916600185901b17855562000341565b600085815260208120601f198616915b82811015620003e757888601518255948401946001909101908401620003c6565b5085821015620004065787850151600019600388901b60f8161c191681555b5050505050600190811b01905550565b608051611cb662000439600039600081816103830152610a0f0152611cb66000f3fe608060405234801561001057600080fd5b506004361061018e5760003560e01c806370a08231116100de578063c78fed0411610097578063dd49e89911610071578063dd49e8991461037e578063e985e9c5146103a5578063f2fde38b146103b8578063fa83d14e146103cb57600080fd5b8063c78fed0414610358578063c87b56dd146101bb578063d34047b61461036b57600080fd5b806370a08231146102fe578063715018a6146103115780638da5cb5b1461031957806395d89b411461032a578063a22cb46514610332578063b88d4fde1461034557600080fd5b8063219cc8bc1161014b5780635618923611610125578063561892361461029757806357d89af01461029f578063609c6d7f146102b25780636352211e146102eb57600080fd5b8063219cc8bc1461024357806323b872dd1461027157806342842e0e1461028457600080fd5b806301ffc9a71461019357806304d20952146101bb57806306fdde03146101db578063081812fc146101e3578063095ea7b31461020e5780631aeb542f14610223575b600080fd5b6101a66101a1366004611576565b6103de565b60405190151581526020015b60405180910390f35b6101ce6101c936600461159a565b610430565b6040516101b291906115f9565b6101ce6104d2565b6101f66101f136600461159a565b610564565b6040516001600160a01b0390911681526020016101b2565b61022161021c366004611628565b61058d565b005b61023661023136600461159a565b61059c565b6040516101b29190611652565b61026361025136600461159a565b6000908152600a602052604090205490565b6040519081526020016101b2565b61022161027f36600461169f565b610607565b61022161029236600461169f565b610697565b600854610263565b6102216102ad3660046116db565b6106b7565b6101a66102c03660046116db565b6000918252600b602090815260408084206001600160a01b0393909316845291905290205460ff1690565b6101f66102f936600461159a565b6108a4565b61026361030c366004611707565b6108af565b6102216108f7565b6006546001600160a01b03166101f6565b6101ce61090b565b610221610340366004611730565b61091a565b6102216103533660046117f3565b610925565b6102216103663660046118b8565b61093d565b610263610379366004611953565b610b7e565b6101f67f000000000000000000000000000000000000000000000000000000000000000081565b6101a66103b33660046119be565b610bdc565b6102216103c6366004611707565b610c0a565b6102216103d93660046116db565b610c48565b60006001600160e01b031982166380ac58cd60e01b148061040f57506001600160e01b03198216635b5e139f60e01b145b8061042a57506301ffc9a760e01b6001600160e01b03198316145b92915050565b600081815260096020526040902080546060919061044d906119e8565b80601f0160208091040260200160405190810160405280929190818152602001828054610479906119e8565b80156104c65780601f1061049b576101008083540402835291602001916104c6565b820191906000526020600020905b8154815290600101906020018083116104a957829003601f168201915b50505050509050919050565b6060600080546104e1906119e8565b80601f016020809104026020016040519081016040528092919081815260200182805461050d906119e8565b801561055a5780601f1061052f5761010080835404028352916020019161055a565b820191906000526020600020905b81548152906001019060200180831161053d57829003601f168201915b5050505050905090565b600061056f82610d49565b506000828152600460205260409020546001600160a01b031661042a565b610598828233610d82565b5050565b6000818152600c60209081526040918290208054835181840281018401909452808452606093928301828280156104c657602002820191906000526020600020905b81546001600160a01b031681526001909101906020018083116105de5750505050509050919050565b6001600160a01b03821661063657604051633250574960e11b8152600060048201526024015b60405180910390fd5b6000610643838333610d8f565b9050836001600160a01b0316816001600160a01b031614610691576040516364283d7b60e01b81526001600160a01b038086166004830152602482018490528216604482015260640161062d565b50505050565b6106b283838360405180602001604052806000815250610925565b505050565b6106ca6106c3836108a4565b3384610e88565b6106e75760405163c183bcef60e01b815260040160405180910390fd5b6000828152600b602090815260408083206001600160a01b038516845290915290205460ff1661072a57604051635820429760e11b815260040160405180910390fd5b6000828152600b602090815260408083206001600160a01b03851684528252808320805460ff19169055848352600c9091528120905b815481101561085c57826001600160a01b031682828154811061078557610785611a22565b6000918252602090912001546001600160a01b03160361085457815482906107af90600190611a4e565b815481106107bf576107bf611a22565b9060005260206000200160009054906101000a90046001600160a01b03168282815481106107ef576107ef611a22565b9060005260206000200160006101000a8154816001600160a01b0302191690836001600160a01b031602179055508180548061082d5761082d611a61565b600082815260209020810160001990810180546001600160a01b031916905501905561085c565b600101610760565b50604051600081526001600160a01b0383169084907f417d7b1e5645680fd6e3e1c564013bd65bdb76859f77a1ba40a8c2e204189f0b906020015b60405180910390a3505050565b600061042a82610d49565b60006001600160a01b0382166108db576040516322718ad960e21b81526000600482015260240161062d565b506001600160a01b031660009081526003602052604090205490565b6108ff610eee565b6109096000610f1b565b565b6060600180546104e1906119e8565b610598338383610f6d565b610930848484610607565b6106913385858585611004565b61094561112f565b610958610951866108a4565b3387610e88565b6109755760405163c183bcef60e01b815260040160405180910390fd5b61097e856108a4565b6001600160a01b0316876001600160a01b0316146109af57604051637ab628f960e01b815260040160405180910390fd5b6001600160a01b0386166109d657604051633a954ecd60e21b815260040160405180910390fd5b60008390036109f85760405163626d54e560e01b815260040160405180910390fd5b60405163043153f360e01b81526001600160a01b037f0000000000000000000000000000000000000000000000000000000000000000169063043153f390610a469085908590600401611aa0565b6020604051808303816000875af1158015610a65573d6000803e3d6000fd5b505050506040513d601f19601f82011682018060405250810190610a899190611ab4565b610aa65760405163200c036160e21b815260040160405180910390fd5b610aaf85611159565b610aba8787876112af565b60008282604051610acc929190611ad1565b6040518091039020905085876001600160a01b0316896001600160a01b03167f9dc0a8c29d4523c1634226b6eca3379fd48c4941bf04226b50ffea4f01f58fc7888886604051610b1e93929190611ae1565b60405180910390a4866001600160a01b0316867f5b34bfad6f882fe354540bf44e0079aac74a9d2d5cae92017ee493b44fd105c88787604051610b62929190611aa0565b60405180910390a350610b756001600755565b50505050505050565b6000610b88610eee565b60088054906000610b9883611b05565b9091555050600854610baa858261135f565b6000818152600960205260409020610bc28582611b66565b506000818152600a60205260409020929092555092915050565b6001600160a01b03918216600090815260056020908152604080832093909416825291909152205460ff1690565b610c12610eee565b6001600160a01b038116610c3c57604051631e4fbdf760e01b81526000600482015260240161062d565b610c4581610f1b565b50565b610c546106c3836108a4565b610c715760405163c183bcef60e01b815260040160405180910390fd5b6000828152600b602090815260408083206001600160a01b038516845290915290205460ff1615610cb55760405163d8d100bd60e01b815260040160405180910390fd5b6000828152600b602090815260408083206001600160a01b038516808552908352818420805460ff19166001908117909155868552600c8452828520805480830182559086529484902090940180546001600160a01b0319168217905590519283529184917f417d7b1e5645680fd6e3e1c564013bd65bdb76859f77a1ba40a8c2e204189f0b910160405180910390a35050565b6000818152600260205260408120546001600160a01b03168061042a57604051637e27328960e01b81526004810184905260240161062d565b6106b283838360016113c4565b6000828152600260205260408120546001600160a01b0390811690831615610dbc57610dbc8184866114ca565b6001600160a01b03811615610dfa57610dd96000856000806113c4565b6001600160a01b038116600090815260036020526040902080546000190190555b6001600160a01b03851615610e29576001600160a01b0385166000908152600360205260409020805460010190555b60008481526002602052604080822080546001600160a01b0319166001600160a01b0389811691821790925591518793918516917fddf252ad1be2c89b69c2b068fc378daa952ba7f163c4a11628f55a4df523b3ef91a4949350505050565b60006001600160a01b03831615801590610ee65750826001600160a01b0316846001600160a01b03161480610ec25750610ec28484610bdc565b80610ee657506000828152600460205260409020546001600160a01b038481169116145b949350505050565b6006546001600160a01b031633146109095760405163118cdaa760e01b815233600482015260240161062d565b600680546001600160a01b038381166001600160a01b0319831681179093556040519116919082907f8be0079c531659141344cd1fd0a4f28419497f9722a3daafe3b4186f6b6457e090600090a35050565b6001600160a01b038216610f9f57604051630b61174360e31b81526001600160a01b038316600482015260240161062d565b6001600160a01b03838116600081815260056020908152604080832094871680845294825291829020805460ff191686151590811790915591519182527f17307eab39ab6107e8899845ad3d59bd9653f200f220920489ca2b5937696c319101610897565b6001600160a01b0383163b1561112857604051630a85bd0160e11b81526001600160a01b0384169063150b7a0290611046908890889087908790600401611c26565b6020604051808303816000875af1925050508015611081575060408051601f3d908101601f1916820190925261107e91810190611c63565b60015b6110ea573d8080156110af576040519150601f19603f3d011682016040523d82523d6000602084013e6110b4565b606091505b5080516000036110e257604051633250574960e11b81526001600160a01b038516600482015260240161062d565b805160208201fd5b6001600160e01b03198116630a85bd0160e11b1461112657604051633250574960e11b81526001600160a01b038516600482015260240161062d565b505b5050505050565b60026007540361115257604051633ee5aeb560e01b815260040160405180910390fd5b6002600755565b6000818152600c60209081526040808320805482518185028101850190935280835291929091908301828280156111b957602002820191906000526020600020905b81546001600160a01b0316815260019091019060200180831161119b575b5050505050905060005b8151811015611297576000838152600b60205260408120835182908590859081106111f0576111f0611a22565b60200260200101516001600160a01b03166001600160a01b0316815260200190815260200160002060006101000a81548160ff02191690831515021790555081818151811061124157611241611a22565b60200260200101516001600160a01b0316837f417d7b1e5645680fd6e3e1c564013bd65bdb76859f77a1ba40a8c2e204189f0b6000604051611287911515815260200190565b60405180910390a36001016111c3565b506000828152600c602052604081206105989161152e565b6001600160a01b0382166112d957604051633250574960e11b81526000600482015260240161062d565b60006112e783836000610d8f565b90506001600160a01b03811661131357604051637e27328960e01b81526004810183905260240161062d565b836001600160a01b0316816001600160a01b031614610691576040516364283d7b60e01b81526001600160a01b038086166004830152602482018490528216604482015260640161062d565b6001600160a01b03821661138957604051633250574960e11b81526000600482015260240161062d565b600061139783836000610d8f565b90506001600160a01b038116156106b2576040516339e3563760e11b81526000600482015260240161062d565b80806113d857506001600160a01b03821615155b1561149a5760006113e884610d49565b90506001600160a01b038316158015906114145750826001600160a01b0316816001600160a01b031614155b801561142757506114258184610bdc565b155b156114505760405163a9fbf51f60e01b81526001600160a01b038416600482015260240161062d565b81156114985783856001600160a01b0316826001600160a01b03167f8c5be1e5ebec7d5bd14f71427d1e84f3dd0314c0f7b2291e5b200ac8c7c3b92560405160405180910390a45b505b5050600090815260046020526040902080546001600160a01b0319166001600160a01b0392909216919091179055565b6114d5838383610e88565b6106b2576001600160a01b03831661150357604051637e27328960e01b81526004810182905260240161062d565b60405163177e802f60e01b81526001600160a01b03831660048201526024810182905260440161062d565b5080546000825590600052602060002090810190610c4591905b8082111561155c5760008155600101611548565b5090565b6001600160e01b031981168114610c4557600080fd5b60006020828403121561158857600080fd5b813561159381611560565b9392505050565b6000602082840312156115ac57600080fd5b5035919050565b6000815180845260005b818110156115d9576020818501810151868301820152016115bd565b506000602082860101526020601f19601f83011685010191505092915050565b60208152600061159360208301846115b3565b80356001600160a01b038116811461162357600080fd5b919050565b6000806040838503121561163b57600080fd5b6116448361160c565b946020939093013593505050565b6020808252825182820181905260009190848201906040850190845b818110156116935783516001600160a01b03168352928401929184019160010161166e565b50909695505050505050565b6000806000606084860312156116b457600080fd5b6116bd8461160c565b92506116cb6020850161160c565b9150604084013590509250925092565b600080604083850312156116ee57600080fd5b823591506116fe6020840161160c565b90509250929050565b60006020828403121561171957600080fd5b6115938261160c565b8015158114610c4557600080fd5b6000806040838503121561174357600080fd5b61174c8361160c565b9150602083013561175c81611722565b809150509250929050565b634e487b7160e01b600052604160045260246000fd5b600067ffffffffffffffff8084111561179857611798611767565b604051601f8501601f19908116603f011681019082821181831017156117c0576117c0611767565b816040528093508581528686860111156117d957600080fd5b858560208301376000602087830101525050509392505050565b6000806000806080858703121561180957600080fd5b6118128561160c565b93506118206020860161160c565b925060408501359150606085013567ffffffffffffffff81111561184357600080fd5b8501601f8101871361185457600080fd5b6118638782356020840161177d565b91505092959194509250565b60008083601f84011261188157600080fd5b50813567ffffffffffffffff81111561189957600080fd5b6020830191508360208285010111156118b157600080fd5b9250929050565b600080600080600080600060a0888a0312156118d357600080fd5b6118dc8861160c565b96506118ea6020890161160c565b955060408801359450606088013567ffffffffffffffff8082111561190e57600080fd5b61191a8b838c0161186f565b909650945060808a013591508082111561193357600080fd5b506119408a828b0161186f565b989b979a50959850939692959293505050565b60008060006060848603121561196857600080fd5b6119718461160c565b9250602084013567ffffffffffffffff81111561198d57600080fd5b8401601f8101861361199e57600080fd5b6119ad8682356020840161177d565b925050604084013590509250925092565b600080604083850312156119d157600080fd5b6119da8361160c565b91506116fe6020840161160c565b600181811c908216806119fc57607f821691505b602082108103611a1c57634e487b7160e01b600052602260045260246000fd5b50919050565b634e487b7160e01b600052603260045260246000fd5b634e487b7160e01b600052601160045260246000fd5b8181038181111561042a5761042a611a38565b634e487b7160e01b600052603160045260246000fd5b81835281816020850137506000828201602090810191909152601f909101601f19169091010190565b602081526000610ee6602083018486611a77565b600060208284031215611ac657600080fd5b815161159381611722565b8183823760009101908152919050565b604081526000611af5604083018587611a77565b9050826020830152949350505050565b600060018201611b1757611b17611a38565b5060010190565b601f8211156106b2576000816000526020600020601f850160051c81016020861015611b475750805b601f850160051c820191505b8181101561112657828155600101611b53565b815167ffffffffffffffff811115611b8057611b80611767565b611b9481611b8e84546119e8565b84611b1e565b602080601f831160018114611bc95760008415611bb15750858301515b600019600386901b1c1916600185901b178555611126565b600085815260208120601f198616915b82811015611bf857888601518255948401946001909101908401611bd9565b5085821015611c165787850151600019600388901b60f8161c191681555b5050505050600190811b01905550565b6001600160a01b0385811682528416602082015260408101839052608060608201819052600090611c59908301846115b3565b9695505050505050565b600060208284031215611c7557600080fd5b81516115938161156056fea26469706673582212208ff371d0b26c07a29e04205050141131d6324dd71748aad0bca67659cca420cc64736f6c63430008180033",
  "linkReferences": {},
  "deployedLinkReferences": {}
}